:020000040800F2
:10000000480C0020A5020008FD360008E132000877
:10001000F9360008AD03000891390008000000001F
:10002000000000000000000000000000053700088C
:10003000BD03000800000000013700080937000870
:10004000BF020008BF020008BF020008BF0200088C
:10005000BF020008BF020008BF020008BF0200087C
:10006000BF020008BF020008BF020008B103000879
:10007000BF020008BF020008BF020008BF0200085C
:10008000BF020008BF020008BF020008BF0200084C
:10009000BF020008CD030008D9030008BF02000812
:1000A000BF020008BF020008BF020008BF0200082C
:1000B000BF020008BF020008BF020008BF0200081C
:1000C000BF020008BF020008BF020008BF0200080C
:1000D000BF020008BF020008BF020008BF020008FC
:1000E000BF020008BF020008BF020008BF020008EC
:1000F000BF020008BF020008BF020008BF020008DC
:10010000BF020008BF02000821370008BF02000834
:10011000BF020008BF0200082D3700083937000869
:10012000BF020008BF020008BF020008BF020008AB
:10013000BF020008BF020008BF020008BF0200089B
:10014000BF020008BF020008BF020008BF0200088B
:10015000BF020008BF020008BF020008BF0200087B
:10016000BF020008BF020008BF020008BF0200086B
:10017000BF020008BF020008BF020008BF0200085B
:10018000BF020008BF020008BF020008BF0200084B
:10019000BF02000800000000890400089504000860
:1001A0004505000851050008BF020008BF0200080D
:1001B000BF020008BF020008BF020008BF0200081B
:1001C000BF020008BF020008BF020008BF0200080B
:1001D000BF020008BF02000800F002F800F052F869
:1001E00014A696E8000CB244B344DA4501D100F0FD
:1001F00049F8BAE80F000FA696E83000A5EB040511
:1002000004EB0607AAEB0704A7F101074FEA15154F
:100210004FEA3414A4F10104AC4201D300F032F8E7
:1002200013F0010F18BFFB1A43F0010300F001F8AF
:10023000DBE71847203E0000403E0000103A24BF94
:1002400078C878C1FAD8520724BF30C830C144BF3B
:1002500004680C6070470000704700000023002411
:1002600000250026103A28BF78C1FBD8520728BFC6
:1002700030C148BF0B6070471FB503F097FE1FBD2C
:1002800010B510BD00F058F81146FFF7F5FF03F068
:1002900027FC00F076F803B4FFF7F2FF03BC00F090
:1002A0007DF800000948804709480047FEE7FEE75F
:1002B000FEE7FEE7FEE7FEE7FEE7FEE7FEE7FEE716
:1002C00004480549054A064B704700000D370008F1
:1002D000D901000848060020480C002048080020EA
:1002E000480800204FF0000200B513469446964699
:1002F000203922BFA0E80C50A0E80C50B1F1200139
:10030000BFF4F7AF090728BFA0E80C5048BF0CC0E6
:100310005DF804EB890028BF40F8042B08BF704744
:1003200048BF20F8022B11F0804F18BF00F8012BB6
:100330007047704770477047754600F02BF8AE461F
:1003400005006946534620F00700854618B020B5E1
:10035000FFF7B6FFBDE820404FF000064FF0000762
:100360004FF000084FF0000BAC46ACE8C009ACE819
:10037000C009ACE8C009ACE8C00921F007018D460E
:10038000704710B50446AFF300802046BDE810402A
:10039000FFF781BF00487047200000200149182066
:1003A000ABBEFEE72600020070470000FEE700003B
:1003B00040F28830C2F2000000F088B970470000B7
:1003C000EFF3108072B600BFFEE7000040F2E830A5
:1003D000C2F2000000F098BC40F2E830C2F2000027
:1003E00000F092BC70B588B000250224012602A955
:1003F000CDE902550494CDE90565079500F0AAFB07
:1004000000283ED14FF08040CDE9020440F2E830B0
:10041000C2F2000002A9CDE90446CDE9065500F07C
:1004200099FB70BB40F2E8300026C2F200000221C6
:1004300002220023009600F0BDFB002818BFFFF742
:10044000BFFF40F2E830C2F200004FF4002100226A
:1004500000F0A2FA002818BFFFF7B2FF40F2E83020
:10046000C2F200000121002200F096FA002818BF15
:10047000FFF7A6FF40F2E830C2F2000000F07AFF7A
:100480000024204608B070BD40F24C40C2F200008B
:1004900000F03ABC40F24C40C2F2000000F034BC24
:1004A000B0B588B00025022402A9CDE90255CDE9F6
:1004B0000444CDE9065500F04DFB00283ED14FF035
:1004C0008040CDE9020440F2E830C2F2000002A907
:1004D000CDE90444CDE9065500F03CFB70BB40F289
:1004E0004C400025C2F200000221022200230095A8
:1004F00000F060FB002818BFFFF762FF40F24C409D
:10050000C2F200004FF40021002200F045FA00285A
:1005100018BFFFF755FF40F24C40C2F2000008211F
:10052000002200F039FA002818BFFFF749FF40F217
:100530004C40C2F2000000F01DFF0024204608B02D
:10054000B0BD000040F2B040C2F2000000F0DCBBE1
:1005500040F2B040C2F2000000F0D6BB70B588B0E7
:1005600000250224012602A9CDE902550494CDE913
:100570000565079500F0EEFA00283ED14FF0804067
:10058000CDE9020440F2E830C2F2000002A9CDE950
:100590000446CDE9065500F0DDFA70BB40F2B040EC
:1005A0000026C2F20000022102220023009600F081
:1005B00001FB002818BFFFF703FF40F2B040C2F272
:1005C00000004FF40021002200F0E6F9002818BFD7
:1005D000FFF7F6FE40F2B040C2F200000121002217
:1005E00000F0DAF9002818BFFFF7EAFE40F2B04049
:1005F000C2F2000000F0BEFE0024204608B070BD2C
:100600002DE9F0418AB00DF104080E460746404638
:1006100024211C461546FFF765FE4FF4801100208B
:1006200006914FF40011CDE90200CDE90440CDE977
:1006300007100990384641463246019500F030FADD
:10064000002818BF01200AB0BDE8F08190F82510FD
:10065000022930D180B50168D0E910CE826C0B68D8
:1006600023F00E030B600B6823F001030B6011688D
:1006700021F4807111600EF01F02012101FA02F2D3
:10068000CCF80420D0E913325A60426D32B11368BD
:1006900023F480731360D0E91623536080F825108B
:1006A000826B002180F824100AB190470021BDE838
:1006B0008040084670470421C1630121002280F870
:1006C000251080F82420084670470000B0B5D0E916
:1006D00010C30268DCF8001003F01F030424D2F8F2
:1006E00000E09C400C4218BF1EF004051BD1022400
:1006F0009C400C4218BF1EF0020520D1D9400907CA
:100700001CD51EF0080108BFB0BD116821F00E0114
:100710001160012101FA03F2CCF80420C16380F8D2
:100720002510416B18E01168890603D4116821F087
:1007300004011160CCF80440016B91B9B0BD11689F
:10074000890606D4116821F00A011160012180F8A0
:100750002510CCF80440C16A0022002980F824202A
:10076000ECD0BDE8B040084700284FF0010C00F085
:100770008A802DE9F04F0021C4F2020103684FF690
:10078000F83201F5816ECBF6FD72734538BF02F584
:1007900080624CF6CD441A44CCF6CC44A2FB04292A
:1007A00003F0FC02A2F10802A2FB042800F1080BEE
:1007B00001F580646FF003069BE8040C3CBF002445
:1007C000C4F2020401F5026506EA9906734538BFD2
:1007D00001F50065C0E91046022480F825401C6838
:1007E00047F6F07724EA0707D0E9054147EA0A0708
:1007F00047EA0B07D0E907E93C43214341EA0E01F0
:1008000041EA0901114319600021C4F2020101F516
:100810000861C164C8F3041173190CFA01F583640B
:10082000B2F5804F056504BF00214160476840F67E
:100830008401FAB21A607B1EC4F20201032B0D6020
:1008400012D8013A01EB8203002702F01F020126B1
:1008500043F87C7F01F1BC0706FA02F2C0E91537C4
:10086000C265C1F8C02003E00021C0E91511C165CF
:100870004FF0000C0121C0F83CC080F8251080F832
:1008800024C0BDE8F04F60467047000090F824C0D7
:10089000BCF1010F43D04FF0010C80F824C090F858
:1008A00025C0BCF1010F37D12DE9F0414FF0020C0A
:1008B00080F825C04FF0000CC0F83CC0D0F800C054
:1008C00000F14C0E9EE83040DCF80060BEF1000FF5
:1008D00026F00106CCF8006065601CBFD0E9164523
:1008E0006560D0E91056846806F01F060127D0F82D
:1008F000308007FA06F66E60CCF80430102C0B46F8
:1009000004BF13460A46B8F1000FCCF80830CCF803
:100910000C2006D00E210BE0002180F824100220CC
:100920007047DCF8001021F00401CCF800100A2117
:10093000DCF800201143CCF80010806C0168C9037A
:1009400003D5016841F480710160BEF1000F05D04C
:10095000DEF8000040F48070CEF80000DCF8000003
:1009600040F00100CCF800000020BDE8F08100005C
:10097000B0B5044600F0F0FD054640F21800C2F2A2
:1009800000000068611C18BF044400BF00F0E4FDD3
:10099000401BA042FAD3B0BD10B590F85C30013BCB
:1009A000012B66D800685FEA417ED0F858C00CF091
:1009B000010300D01BB311F0380F02D01CF0020469
:1009C0001DD011F4E07F02D01CF0040417D011F404
:1009D000F05F02D01CF0080411D011F4604F02D077
:1009E0001CF010040BD011F4403F02D01CF0200486
:1009F00005D011F47C0F06D01CF0400403D1C46D67
:100A000044F00104C465BEF1000F18BF002B38D1BB
:100A100011F0380F18BF1CF0020332D111F4E07F3F
:100A200018BF1CF004032CD111F4F05F18BF1CF0A8
:100A3000080326D111F4604F18BF1CF0100320D119
:100A400011F4403F18BF1CF020031AD111F47C0FA1
:100A500018BF1CF0400314D10B0618D4CB0504D5E5
:100A6000D0F8E0301A43C0F8E02000F15402002032
:100A700003E000F1600201200221136819431160B4
:100A800010BDC36D43F00203C3650B06E6D5D0F875
:100A9000DC301343C0F8DC30CB05E1D4E5E70000DF
:100AA00090F85C30022B16D12DE9F041D0F800E02F
:100AB000DEF8C4309B0214D4DEF8C430D1E90076ED
:100AC0008C680D69C3F3014C96B144EA07032B43CC
:100AD00043F0804810E0016E41F0080101660120FA
:100AE0007047016E41F4007101660120BDE8F0819C
:100AF00045EA874343EA040801F11407F0CF46EAC8
:100B000007663543CB682C43456D0CEBCC0644EAB5
:100B1000034305EBC60445F836806360CB6883B1B8
:100B200044F2120504F1080303320024C0F6000564
:100B3000161956F8036C1E51CE680434AE5DB442EB
:100B4000F6D3012101FA0CF1CEF8CC10816500201A
:100B5000BDE8F08190F85C20013A012A14D880B5F4
:100B60000A68BAB101F1040E9EE80450D1E90431DB
:100B7000406C43EA4E7E41EA8C7100EBC20340F8C0
:100B800032E05960002080BD016E41F00201016633
:100B900001207047D1E90323D1E901CED20649698A
:100BA00042EA8E7242EA0342006C114340F82C1074
:100BB000002080BD90F85CC0BCF1010F14D180B55D
:100BC00000689200D0F880C0DDF808E042EA011128
:100BD00041EA43012CF03F0C41EA0E0141EA0C01CD
:100BE000C0F88010002080BD016E41F00401016654
:100BF00001207047704700007047000070B590F802
:100C00005C50022D0FD104684029A4460FD15CF836
:100C1000905F2D0717D0DCF800504FF0480EED0123
:100C20000FD5092516E0016E41F008010EE05CF8D1
:100C3000985F2D0707D0DCF800504FF04C0EED0107
:100C400007D400240BE0016E41F48071016601209D
:100C500070BD0825D4F88040EC4004F00104DCF8B5
:100C6000005050F80EE0C5F3012505EB040C0CEB29
:100C7000CC045EF8345015F0804555605EF8345071
:100C800025F0604608BFC5F38A4616605EF834500A
:100C900005F0005595605EF834500EEBC40405F085
:100CA00000461661A688D661E68816F00F06D66063
:100CB000666806F480165661666806F4001696614A
:100CC000E67906F07F06166266684FEAD6765662C7
:100CD0000ED044F2120E08340025C0F6000E00BFFC
:100CE000665D5E55D66801351EF80660B542F7D3DD
:100CF000006840290CBFC0F894C0C0F89CC0002018
:100D000070BD0000704700002DE9F04F85B004462B
:100D10000068016D426DD0F850B0456D076D466DAD
:100D2000036D01EA02080493436D0393036D02937C
:100D3000436D0193D0F854A0D0F850905FEA496316
:100D400007D51AF0400104D0402101652046FFF785
:100D5000D9FF0BEA050B5FEAC95008F4E0550ED540
:100D60001AF480700BD02068D0F8D810D0F8E020AA
:100D700011404FF480720265204600F015FB3740A9
:100D80000BF007062DB1206829460565204600F0C6
:100D90000FFB07F038052EB1206831460665204666
:100DA00000F040FA2DB1206829460565204600F084
:100DB000A1FA5FEA895009D51AF4007006D02068BC
:100DC0004FF400710165204600F0F4FA5FEA096013
:100DD0000DD51AF080000AD02068D0F8D410D0F8D1
:100DE000DC20114080220265204600F0DFFA5FEA35
:100DF000894009D51AF4005006D020684FF40051FC
:100E00000165204600F0CEFA5FEA0940DDE90110F5
:100E100000EA010509D51AF4004006D020684FF415
:100E200000410165204600F0BBFADDE903100840EF
:100E30005FEA494105F460210AD51AF4804207D0DF
:100E400022684FF480431365226E42F080022266CE
:100E500000F4710521B1206801652046FFF7CCFE42
:100E600025B120680565206E28432066206E28B1D4
:100E7000204605B0BDE8F04FFFF7BCBE05B0BDE8A9
:100E8000F08F0000002804BF01207047F0B581B04A
:100E9000044690F85C0028B9002084F85D002046E4
:100EA00000F0EAF82068816921F01001816100F00A
:100EB00053FB054620688169090705D500F04CFB06
:100EC000401B0B28F6D310E0816941F001018161DC
:100ED00000F042FB054600BF20688169C9070BD1BD
:100EE00000F03AFB401B0B28F6D3206E032140F0A4
:100EF000010020660120BBE0826946F2004CC4F28A
:100F0000000C42F002026045826102D16268CCF8B6
:100F10000021227C8369012A23F0400318BF40335B
:100F20008361627C8369012A23F4804308BF03F54F
:100F300080438361A27C8369012A23F4805318BF14
:100F400003F5805383618569D4E902E325F4407594
:100F500045EA0E058561856925F0A4058561056969
:100F600025F0100505619BB1012B0DD0022B09D096
:100F70008569032B45F080058561056945F01005FD
:100F8000056105D1202300E0042385692B4383619B
:100F900004F114052ACD226A6FF0FF075E1E07EBED
:100FA000052545EA4665013A2A430025CFF6FF7537
:100FB00005EB01411143BEF5407FC16110D104F141
:100FC000240646CE236B013A07EB06273A436FF01F
:100FD0000F0707EB03131A4305EB01411143C160EF
:100FE000D4E90D13E26BD0F8C0704AF250763A4360
:100FF000C0F8C0200CF580670CF58042B84204BFF1
:101000004AF25072C4F200020CF50067C4F2000606
:10101000B84208BF06F554722264D0F8807027F4F5
:10102000F81747EA0141C0F8801002F170016164CD
:10103000D0F8801021F0706141EA0361C0F880109F
:1010400002F1B000A06402F5C470E06402F518700B
:10105000206502F51E70606502F55470002100BF26
:1010600042F8041B8242FBD300200121A0652066C8
:1010700084F85C1001B0F0BDB0B59CB0044600200F
:101080001B90CDE91900CDE9170002A85421FFF704
:1010900029F9206846F60041C4F20001884272D066
:1010A00046F60001C4F2000188423CD046F20041FD
:1010B000C4F20001884240F0B3804FF480500290A7
:1010C0004FF00070109002A800F084FB002818BFB9
:1010D000FFF776F940F2CC11C2F200010A6841F242
:1010E0004C00C4F20200531C0B6042B9C16841F0CD
:1010F0000071C160C16801F000710191019901683E
:10110000162441F0080101600068152500F0080070
:101110000190019840F20040C4F6000000F5006024
:101120000921032262E04FF4805002904FF00070DA
:10113000109002A800F04EFB002818BFFFF740F9FE
:1011400040F2CC11C2F200010A6841F24C00C4F234
:101150000200531C0B6042B9C16841F00071C160CC
:10116000C16801F00071019101990168572441F0B3
:10117000020101600068562500F00200019001980C
:10118000092160222EE04FF4805002904FF0007051
:10119000109002A800F01EFB002818BFFFF710F9FE
:1011A00040F2CC11C2F200010A6841F24C00C4F2D4
:1011B0000200531C0B6042B9C16841F00071C1606C
:1011C000C16801F00071019101990168592441F051
:1011D000020101600068582500F0020001900198AA
:1011E0000B21182240F20040C4F6000017920222A0
:1011F000189200221B9117A9CDE9192200F0DCF802
:1012000028460021002200F025FA284600F010FAB6
:1012100020460021002200F01DFA204600F008FAC6
:101220001CB0B0BD10B540F2E831C2F200018842F6
:1012300006D040F2B041C2F20001884220D010BD79
:1012400040F2C00440F2E830C2F2000440F28003F1
:10125000C2F20000C2F2000340212246FFF7CEFC9A
:1012600020682028EBD140F2F210C2F20000007892
:101270000028E4D140F2CA10C2F2000001211FE0B0
:1012800040F2901440F2B040C2F2000440F2501319
:10129000C2F20000C2F2000340212246FFF7AEFC7A
:1012A00020683028CBD140F2F210C2F20000007862
:1012B000002818BF10BD40F2E010C2F2000000216B
:1012C00040F20902C2F200021170012240F2F21152
:1012D000027040F28030C2F20001C2F200000A70D7
:1012E000D0E9000140F2D812C2F20002C2E90001C6
:1012F00010BD000040F24C41C2F20001884218BF0C
:10130000704710B540F2281440F24C40C2F200047D
:1013100040F2E803C2F20000C2F20003412122467B
:10132000FFF76CFC2068402808D140F2F210C2F2AE
:101330000000007880B1BDE8104070475028FAD115
:1013400040F2F210C2F2000000780028F3D140F21F
:10135000B810C2F2000003E040F2E110C2F2000057
:101360000121017040F2F210C2F200000170BDE8EC
:101370001040704790F85C1001290BD1022180F8D1
:101380005C1001688A6922F001028A61002101660D
:1013900000207047016E41F0040101660120704792
:1013A0007047000070470000704700007047000061
:1013B00070470000704700002DE9F04F83B00E68C1
:1013C000002E00F0C68000F1200241F2004C009295
:1013D00000F13847C4F6000C06224FEAB7256045F5
:1013E00008BF0522052D38BF4FEAB7220025002788
:1013F0004FF0000A01920AE00E680AF1010A36FA7B
:101400000AF207F1020705F1040500F0A2800122AB
:1014100002FA0AFC16EA0C09EED0D1F804B0032255
:101420000BF00308A8F10106012E02FA07F610D806
:10143000D0F808E0CC682EEA0602BC402243826065
:101440004268CBF3001422EA0C0204FA0AF42243A5
:101450004260B8F1030F1ED0C2688C68B243BC4032
:101460002243B8F1020FC26015D16FF00302009C55
:1014700002EA5A0B54F80BC005F01C030F22D1F8F6
:10148000108002FA03FE2CEA0E0C08FA03F343EA7A
:101490000C0344F80B3002684B68B24303F00306B8
:1014A000BE40324313F4403F0260A5D041F26003D6
:1014B000C4F202031A6840F2004E42F001021A60C0
:1014C0001A68C4F2010E02F001020292029A2AF096
:1014D00003024FF6084C7244CFF6FF7C52F80C30F2
:1014E00005F00C060F24B440A343019C04FA06F651
:1014F000334342F80C30DEF808204B6842EA090614
:1015000040F20C4CDC0258BF22EA0906CEF8086013
:10151000C4F2010CDCF800209C0242EA090658BF24
:1015200022EA0906CCF80060DEF804209C0342EAB7
:10153000090658BF22EA0906CEF80460DEF800204A
:10154000DB0342EA090658BF22EA0906CEF800602A
:1015500052E703B0BDE8F08F40F24460C2F20000F1
:101560000068704740F2180040F24461C2F2000087
:10157000C2F2000100680A68104408607047000069
:1015800080B5032000F092F80F2000F009F8002841
:101590001CBF012080BD00F031F8002080BD00009C
:1015A00040F21801C2F200010968002904BF0120BD
:1015B000704710B5044640F21000C2F200004FF42C
:1015C0007A720068B2FBF1F1B0FBF1F000F062FE5C
:1015D00001460F2C4FF001000ED8002918BF10BD96
:1015E0004FF0FF302146002200F034F840F21C0199
:1015F0000020C2F200010C6010BD000082B041F278
:101600005800C4F20200816841F0010181608168E4
:1016100001F0010101910199016841F080510160DF
:10162000006800F080500090009802B000F0C8B848
:10163000002848BF704700F01F01012202FA01F1A3
:101640001C2202EAD0004EF20012CEF200028150BB
:101650007047000010B54EF60C5CCEF2000CDCF8C2
:101660000030C3F3022E8EF00704042C28BF04249C
:10167000BEF103034FF0FF3E0EFA04F438BF00231F
:10168000A14399400EFA03F39A43114300F16042DB
:1016900000F00F03090102F56442043B6344002893
:1016A00048BF03F10C02117010BD00004EF60C5142
:1016B000CEF200010A684FF6FF031A4060F30A22D7
:1016C00042F0806040F0FD700860704747F2000C07
:1016D000C4F2000CDCF80020B0F5007F35D0002803
:1016E00066D1DCF8800002F4C06220F48070B2F5AC
:1016F000806FCCF8800026D1DCF80000012262F374
:101700004A20CCF8000040F21000C2F2000000684D
:10171000322358434DF68363C4F21B33A0FB03030B
:1017200002EB9340002200BFDCF81410013842F1B4
:101730000003490501D5002BF6D1DCF81400400563
:1017400044BF0320704700207047DCF8800002F49B
:10175000C06140F48070B1F5806FCCF88000F2D1A8
:10176000DCF80000012161F34A20CCF8000040F2CF
:101770001000C2F200000068322250434DF683622E
:10178000C4F21B32A0FB020201EB9240002200BF18
:10179000DCF81410013842F10003490501D5002B93
:1017A000F6D1DCF81400400544BF03207047CAE7B7
:1017B000022060F34A22CCF800200020704700008D
:1017C00047F20800C4F20000016841F48041016062
:1017D000704700002DE9F04381B08146807841F2E6
:1017E00088060007C4F2020601D400204AE056F839
:1017F000300C5FEAC0080BD456F8300C40F0805033
:1018000046F8300C56F8300C00F0805000900098EC
:1018100047F20004C4F20004206840F480702060A5
:10182000FFF79AFE054600BF2068C70508D4FFF7FA
:1018300093FE401B0328F7D30320002F03D418E0A6
:101840000020002F15D5B16811F4407100F02981F6
:10185000D9F85020914240F02981C90740F03581E4
:1018600038B9B068D9F8501020F440700843B0601F
:101870000020B8F1000F05D456F8301C21F080513B
:1018800046F8301CD9F80010CA0716D18A071DD4B3
:101890004A0724D40A072BD4CA0632D48A0639D47C
:1018A0004A0640D40A0647D4CA054ED48A0355D402
:1018B0008A055CD44A0563D472E03268D9F80430F2
:1018C00022F003021A4332608A07E1D53268D9F860
:1018D000083022F00C021A4332604A07DAD5326827
:1018E000D9F80C3022F030021A4332600A07D3D5FF
:1018F0003268D9F8103022F0C0021A433260CA06AA
:10190000CCD53268D9F8143022F440721A433260D0
:101910008A06C5D53268D9F8183022F440621A43D5
:1019200032604A06BED53268D9F81C3022F44052E3
:101930001A4332600A06B7D53268D9F8203022F44B
:1019400040421A433260CA05B0D53268D9F8243013
:1019500022F440321A4332608A03A9D57269D9F859
:10196000283022F003021A4372618A05A2D5326838
:10197000D9F82C3022F440221A4332604A050FD5A0
:101980003268D9F8303022F440121A43B3F5801F80
:10199000326005D156F87C2C42F4801246F87C2C3B
:1019A0000A050FD53268D9F8343022F440021A43C0
:1019B000B3F5800F326005D156F87C2C42F48012CA
:1019C00046F87C2CCA040FD53268D9F8383022F09A
:1019D00040721A43B3F1807F326005D156F87C2CF7
:1019E00042F4801246F87C2C8A040FD53268D9F86C
:1019F0003C3022F040621A43B3F1006F326005D1EF
:101A000056F87C2C42F4801246F87C2C4A040FD500
:101A10003268D9F8403022F040621A43B3F1006FC7
:101A2000326005D156F87C2C42F4801246F87C2CAA
:101A30000A040FD53268D9F8443022F040521A43D4
:101A4000B3F1805F326005D156F87C2C42F48032CD
:101A500046F87C2CCA030FD53268D9F8483022F0FA
:101A600040421A43B3F1804F326005D156F87C2CC6
:101A700042F4803246F87C2C49030FD57169D9F8BD
:101A80004C2021F440111143B2F5001F716105D1C2
:101A900056F87C1C41F4801146F87C1C01B0BDE86E
:101AA000F0830021C9073FF4DBAE0EE0B168B268F5
:101AB00021F4407142F48032B260B26822F4803284
:101AC000B260B160C9073FF4CBAE0446FFF744FDF6
:101AD000054641F2893700BFB068800709D4FFF797
:101AE0003BFD401BB842F7D3032000287FF4C1AE72
:101AF000B7E6204600287FF4BCAEB2E62DE9F047F9
:101B0000002800F0FE8042F2000AC4F2020A0446F5
:101B1000DAF800000D4600F00F0081420DD9DAF826
:101B2000000020F00F002843CAF80000DAF8000097
:101B300000F00F00A84240F0E480216841F208085C
:101B4000C807C4F202080CD14FF0000920688107D1
:101B50004BD4B9F1000F61D0D8F8000020F0F000AC
:101B60005AE0606858F8082C022800F0C880032862
:101B700040F0CA80920140F1C480D8F80420D8F81F
:101B8000043042F20046C3F3031302F00302D8F814
:101B900004700133C0F2F406032A04BF47F640067E
:101BA000C0F27D16B6FBF3F2D8F80430C7F306276F
:101BB0007A43C3F34163022707EB4303B2FBF3F21B
:101BC0004BF20043C0F2C4439A4240F2E480D8F89A
:101BD000002012F0F00F00F0D480890740F1DB8084
:101BE000A168002940F0D780CBE0410705D5D8F89F
:101BF000001041F4E061C8F80010000706D5D8F8DD
:101C00000000072161F30D20C8F80000D8F800009B
:101C1000A16820F0F0000843C8F80000DAF80000DE
:101C200000F00F00854219D2DAF8000020F00F0012
:101C30002843CAF80000FFF78FFC064641F28837B8
:101C4000DAF8000000F00F00A84207D0FFF784FC8C
:101C5000801BB842F4D90320BDE8F0872068410713
:101C600007D5D8F80010E26821F4E0611143C8F804
:101C70000010000708D5D8F80000216920F4605052
:101C800040EAC100C8F80000D8F8000042F2004164
:101C9000C0F2F40100F00C000428084600F09C801B
:101CA000D8F8000000F00C00082847F64000C0F209
:101CB0007D1000F09180D8F8002002F00C020C2A70
:101CC00040F08980D8F80420D8F8043002F00302EC
:101CD000C3F30313D8F804700133032A08BF014685
:101CE000B1FBF3F0D8F80410C7F30627C1F3416144
:101CF0000222784302EB4101B0FBF1F06CE091036A
:101D000004D40120BDE8F0875105FAD5D8F80010B9
:101D100001F00C0104293ED0D8F8001001F00C01AC
:101D2000082938D0D8F8001001F00C010C2932D164
:101D3000D8F80410D8F8042042F20047C2F3031286
:101D400001F00301D8F804300132C0F2F40703298E
:101D500004BF47F64007C0F27D17B7FBF2F1D8F891
:101D60000420C3F306235943C2F34162022303EB69
:101D70004202B1FBF2F14BF20042C0F2C442914286
:101D800009D9D8F80010082262F307114FF00109B1
:101D9000C8F8001001E04FF00009D8F8001021F059
:101DA00003010843C8F80000FFF7D6FB064641F2DE
:101DB000883700BFD8F80000616800F00C00B0EB75
:101DC000810F3FF4C3AEFFF7C7FB801BB842F1D9C8
:101DD0000320BDE8F0870020D8F8001043F6C67253
:101DE000C1F30311C0F60002515C40F2100201F091
:101DF0001F0120FA01F140F21C00C2F2000000684D
:101E0000C2F200021160BDE8F047FFF7C9BB000055
:101E1000002804BF012070472DE9F04182B004463C
:101E2000007841F20006C007C4F202061DD12078F6
:101E3000800737D4207800075AD42078400778D418
:101E40002078800600F1BF80E569002D00F01E8239
:101E5000B06800F00C000C2840F01E81012D40F00D
:101E60009881012002B0BDE8F081B06800F00C015B
:101E7000F068082954D0032281F00C0122EA000006
:101E80000844B0FA80F040094AD165683068B5F579
:101E9000A02F00F0C680B5F5803F40F0C98040F427
:101EA0008030CBE0B068F16800F00C00042864D00A
:101EB00001F0030180F00C0081F002010844B0FA47
:101EC00080F0400959D1E1683068002900F0D180E4
:101ED00040F480703060FFF73FFB054630684005F6
:101EE00000F1FC80FFF738FB401B0228F6D936E1F1
:101EF0006169D6F89400002900F0818040F001006B
:101F0000C6F89400FFF728FB054600BFD6F89400FA
:101F1000800792D4FFF720FB401B0228F6D91EE170
:101F2000306880037FF583AF606800287FF47FAF5F
:101F300039E0B06D5FEAC00808D4B06D40F0805061
:101F4000B065B06D00F080500190019847F2000735
:101F5000C4F200073868C00529D4386840F480709E
:101F60003860FFF7F9FA05463868C0051FD4FFF757
:101F7000F3FA401B0228F7D9F1E03068400501D59B
:101F8000E06880B17068216920F0FE4040EA01609D
:101F9000706040F21C00C2F200000068FFF700FB16
:101FA00000283FF447AF012002B0BDE8F081A568EA
:101FB000D6F89000052D00F0AE80012D40F0B480E1
:101FC00040F00100B8E0A169D6F89800002900F0BF
:101FD0008D8040F00100C6F89800FFF7BDFA054675
:101FE000D6F8980080073FF52FAFFFF7B5FA401BF2
:101FF00002284FF00300F3D902B0BDE8F08120F0D1
:102000000100C6F89400FFF7A7FA0546D6F8940039
:1020100080077FF512AFFFF79FFA401B0228F5D922
:102020009DE040F480203060306840F4803005E06E
:1020300020F480303060306820F480203060FFF77A
:102040008BFA002D054610D0306880033FF5EFAEC7
:10205000FFF782FA401B6428F6D980E0FFF77CFA8C
:10206000401B64284FF00300C6D830688003F5D4C5
:10207000DDE620F480703060FFF76EFA054600BFA1
:10208000306840057FF5D6AEFFF766FA401B0228A0
:102090004FF00300F4D9AFE7306820F08070306073
:1020A000FFF75AFA022D05460CD100BF30688001B7
:1020B00040F1A880FFF750FA401B02284FF00300C0
:1020C000F4D999E73068800140F1D980FFF744FAEC
:1020D000401B02284FF00300F4D98DE77068216996
:1020E00020F0FE4040EA01607060A3E620F00100AD
:1020F000C6F89800FFF730FA054600BFD6F89800FA
:1021000080077FF5A1AEFFF727FA401B02284FF0AA
:102110000300F3D970E740F00400C6F89000D6F849
:10212000900040F0010007E020F00100C6F89000A8
:10213000D6F8900020F00400C6F89000FFF70CFAE3
:10214000002D054641F2883716D000BFD6F8900022
:10215000800715D4FFF700FA401BB842F6D90320D8
:1021600002B0BDE8F08100BFFFF7F6F9401BB842AE
:102170004FF003003FF640AFD6F890008007F3D44D
:10218000B8F1000F3FF55CAEB06D20F08050B06547
:1021900056E6F068216A00F003028A427FF403AF3A
:1021A000626A6FF00F0300F0F00103EB021291423C
:1021B0007FF4F9AEA16A00F4FE42B2EB012F7FF486
:1021C000F2AEE16A00F07842B2EBC16F7FF4EBAEA1
:1021D000226B0023CFF6E07303EA025200F4C00141
:1021E000A2F5001291427FF4DEAE616B4FF07E42A9
:1021F00002EA016100F0C06001F17E4188427FF493
:10220000D2AE43E0F06848F20C01C0F29F1104F135
:10221000200700EA010C8ECF6FF00F00D4E90C54B8
:1022200000EB02100022CFF6E07241EA0C0102EA54
:1022300005520843A2F500124FF07E4540EA032004
:1022400005EA0465104305F17E4540EAC76028436E
:10225000F060306840F080703060F06840F080706E
:10226000F060FFF779F90446306880010ED4FFF77B
:1022700073F9001B02284FF00300F5D9BCE6F068A3
:102280004FF6FC71CFF6EE610840F060002002B01E
:10229000BDE8F081411E0020B0EB116F1CBF012092
:1022A00070474EF21002CEF2000251604EF62351FA
:1022B000CEF20001F0230B7007219060116070478F
:1022C0007047000070470000704700007047000032
:1022D000704700007047000090F83C20012A4FF042
:1022E000020266D070B5012380F83C3080F83D20B2
:1022F000026842F6004C54689368C4F2010C45F23F
:10230000000E6245C4F2010E18BF72452AD14D6815
:1023100024F470042C434FF68F75CFF6FF550E68EA
:102320002C4042F6FF35C4F201053443AA42546002
:102330000DDC40F2FF76C4F20006B24219DCB2F1C5
:10234000804F29D040F20046C4F2000622E043F656
:10235000FF74C4F20104A24216DC62451CD043F2B1
:10236000004615E043F20045C4F20105AA42CED072
:10237000D1E740F60006C4F20006B2420CD040F6A7
:102380000046C4F2000605E0724505D044F200069E
:10239000C4F20106B24204D1896823F080031943D4
:1023A00091600121002280F83D1080F83C20BDE8BA
:1023B000704010467047000070470000002804BFBE
:1023C0000120704710B5044690F83D0028B9002060
:1023D00084F83C00204600F023F8022084F83D00F9
:1023E0002068211D01F0AEF9012084F8480084F82E
:1023F0003E0084F83F0084F8400084F8410084F8EF
:10240000420084F8430084F8440084F8450084F8CE
:10241000460084F8470084F83D00002010BD00000D
:1024200070B582B00168A1F18041A1F580614FEAE9
:10243000B121042932D8DFE801F0033147335B00D2
:10244000054641F25800C4F20200016840F28834A7
:1024500041F0020101600068C2F2000400F00200D5
:10246000019001980820C4F202003D2110220023AF
:102470004FF0800C4FF4807E84E80F504FF40050F2
:102480004FF4006620622046C4E90663FEF76CF94B
:10249000002818BFFDF794FF6C62A56202B070BD02
:1024A00041F25800C4F202000168002241F010011C
:1024B00001600068002100F01000019001983620B2
:1024C000FFF7C8F8362026E041F25800C4F20200B7
:1024D0000168002241F0080101600068002100F05D
:1024E0000800019001983220FFF7B4F8322012E082
:1024F00041F25800C4F202000168002241F02001BC
:1025000001600068002100F0200001900198372050
:10251000FFF7A0F8372002B0BDE87040FFF788B899
:1025200090F83D1001291BD1022180F83D1001686F
:1025300042F6FF32C868C4F20102914240F0010045
:10254000C8600FDC40F2FF70C4F20000814218DC6A
:10255000B1F1804F2CD040F20040C4F2000025E0E1
:102560000120704743F6FF70C4F20100814213DC82
:1025700042F60040C4F20100814219D043F200400B
:1025800012E040F60000C4F20000814210D040F694
:102590000040C4F2000009E045F20000C4F201006E
:1025A000814205D044F20000C4F2010081420CD106
:1025B00088680722C0F201020240062A4FF000009C
:1025C000CFD0B2F5803F08BF7047086840F00100E7
:1025D000086000207047000090F83C20012A4FF06E
:1025E000020200F0998080B5012380F83C3080F829
:1025F0003D20D0F800C08822DCF80830CFF6CE723B
:102600001A40CCF808200B68B3F5005F0DDA3F2BB9
:1026100021DD5F2B38DD602B00F0A680702B00F0F1
:102620009080B3F5805F6ED0E2E02F22C0F21002FE
:10263000934217DD4F21C0F210018B424CDD502137
:10264000C0F210018B4252D06021C0F210018B42C7
:102650004DD0702146E01F2B0EDC002B47D0102BF5
:1026600045D0C5E0B3F1101F0BDAB3F5005F55D0CC
:10267000B3F5801F3BD0BBE0202B38D0302B36D0B9
:10268000B6E034D020212DE0402B00F08F80502B7D
:1026900040F0AE80D1F804E0C968DCF82030DCF806
:1026A000202022F00102CCF82020DCF8182022F0B3
:1026B000F00242EA011123F00A0242EA0E02CCF8CB
:1026C0001810CCF82020DCF808104FF68872CFF6EE
:1026D000CF721140573114E03021C0F210018B420B
:1026E00005D04021C0F210018B4240F08180DCF81F
:1026F00008104FF68872CFF6CF721140194341F09F
:102700000701CCF808100022012180F83D100021BB
:1027100080F83C10BDE8804010467047D1E901E3E5
:10272000C968DCF8082043EA0E0322F47F4243EA3A
:1027300001211143CCF80810DCF8081041F4804165
:10274000DFE7D1E901E3C968DCF8082043EA0E03BA
:1027500022F47F4243EA01211143CCF80810DCF84F
:10276000081041F07701CCE7D1F804E0C968DCF843
:102770002030DCF8202022F01002CCF82020DCF8F9
:10278000182022F4704242EA013123F0A00242EA0A
:102790000E12CCF81810CCF82020DCF808104FF6F8
:1027A0008872CFF6CF7211406731AAE7D1F804E002
:1027B000C968DCF82030DCF8202022F00102CCF8D7
:1027C0002020DCF8182022F0F00242EA011123F068
:1027D0000A0242EA0E02CCF81810CCF82020DCF8ED
:1027E00008104FF68872CFF6CF721140473188E754
:1027F000012289E77047000070470000F0B581B002
:1028000004460068C5680669B10716D515F00201CF
:1028100013D06FF0020101610121217780698007E7
:1028200003D02046FFF7E8FF05E0204600F0CAF895
:10283000204600F0F5FA00202077700718D515F033
:10284000040015D020686FF0040101610221217796
:10285000806910F4407F03D02046FFF7CDFF05E0EC
:10286000204600F0AFF8204600F0DAFA002020778A
:10287000300717D515F0080014D020686FF0080154
:10288000016104212177C069800703D02046FFF74A
:10289000B3FF05E0204600F095F8204600F0C0FAAE
:1028A00000202077F00618D515F0100015D020680C
:1028B0006FF01001016108212177C06910F4407F99
:1028C00003D02046FFF798FF05E0204600F07AF895
:1028D000204600F0A5FA00202077F00718BF15F079
:1028E000010006D020686FF001010161204600F070
:1028F00071FC16F4025F05F0800718BF002F02D1AB
:10290000F00509D410E020686FF4025101612046FF
:10291000FFF7D8FCF00507D537B120686FF4807158
:1029200001612046FFF7CCFC700609D515F0400088
:1029300006D020686FF040010161204600F0CEFC17
:10294000B00609D515F0200006D020686FF02001F0
:1029500001612046FFF7B8FCF00209D515F480109C
:1029600006D020686FF4801101612046FFF7B0FCAB
:10297000B00209D515F4001006D020686FF40011DC
:1029800001612046FFF7A2FC700209D515F4800012
:1029900006D020686FF4800101612046FFF79AFCA1
:1029A00030020CD515F4000009D021686FF4000244
:1029B00020460A6101B0BDE8F040FFF7FDBC01B060
:1029C000F0BD00007047000090F83C30012B04BFC0
:1029D000022070474FEAB2020123052A80F83C30FA
:1029E00000F2E4812DE9F041DFE812F00600440135
:1029F0009000EA0053009C0103681D6A1A6AA3F163
:102A0000804622F001021A621A46D3F8048052F876
:102A100018CF8F68A6F59636D1F800E025F00205AC
:102A20004FEAB626092E45EA07050BD80127B7401D
:102A300040F2E52427421FBFCC6825F00C0524F0A6
:102A400004042543092E0CD80124B44040F2E526A5
:102A500034421FBFD1E9054628F440773C4344EA9D
:102A600006084FF68C74CFF6FE740CEA040747EAAA
:102A70000E07C3F804809F614F6809695F631D6298
:102A80009F6947F008079F619F6927F004079F61CE
:102A900086E10368D3F820C01A6AA3F1804722F4C4
:102AA00080321A621A46A7F596375D6852F8508F41
:102AB000D1F800E08E684FEAB727092F0AD8012421
:102AC000BC4040F2E5273C421EBF4C6925F48035EE
:102AD00045EA04252CF4003747EA06474FF68C7682
:102AE000CFF6FE76033606EA080646EA0E065D6075
:102AF0001E654E6809699E641F621F6D47F00807D6
:102B00001F651F6D27F004071F6549E1036842F642
:102B100000461D6A1A6AC4F2010622F480721A6223
:102B20001A46D3F804C052F81CEFB3428E68D1F8AD
:102B3000008025F4007545EA06250BD045F2000615
:102B4000C4F20106B34205D043F20046C4F20106C6
:102B5000B34207D1CE6840F2FF47360225F4406504
:102B6000BE433543A3F18046A6F596364FEAB62616
:102B7000092E0DD8012707FA06F640F2E5273E4256
:102B80001FBFD1E905672CF44054374344EA071CC2
:102B90004FF68C74CFF6FE740EEA040747EA080776
:102BA000C3F804C0DF614F680969DF631D62DF6934
:102BB00047F00807DF61DF6927F00407DF61EFE016
:102BC000036842F600461D6A1A6AC4F2010622F43E
:102BD00080521A621A46D3F804C052F81C8FB342CE
:102BE0008E68D1F800E025F4005545EA06350BD093
:102BF00045F20006C4F20106B34205D043F2004696
:102C0000C4F20106B34207D1CE6844F6FF7736031B
:102C100025F44045BE433543A3F18046A6F59636DC
:102C20004FEAB626092E0DD8012707FA06F640F21C
:102C3000E5273E421FBFD1E905672CF440443743E6
:102C400044EA871C48F6FF44CFF6FF6404EA080410
:102C500044EA0E27C3F804C0DF614F6809691F64A6
:102C60001D62DF6947F40067DF61DF6927F4806771
:102C7000DF6194E0036842F600461D6A1A6AC4F2F6
:102C8000010622F010021A621A465C6852F818CF48
:102C9000B3428E68D1F800E025F0200545EA06151C
:102CA0000BD045F20006C4F20106B34205D043F250
:102CB0000046C4F20106B34207D1CE686FF0400768
:102CC00025F0C00507EA06163543A3F18046A6F5B0
:102CD00096364FEAB626092E0DD8012707FA06F6D2
:102CE00040F2E5273E421FBFD1E9056724F4406466
:102CF0003E4344EA860448F6FF46CFF6FF660CEAF8
:102D0000060747EA0E275C609F614F6809699F6369
:102D10001D629F6947F400679F619F6927F4806780
:102D20009F613CE00368D3F820C01A6AA3F1804792
:102D300022F480121A621A46A7F596375D6852F897
:102D4000508FD1F800E08E684FEAB727092F0AD8D4
:102D50000124BC4040F2E5273C421EBF4C6925F4EB
:102D6000802545EA84252CF4001747EA065748F6E3
:102D7000FF46CFF6FF6606F5407606EA080646EA05
:102D80000E265D601E654E680969DE641F621F6D58
:102D900047F400671F651F6D27F480671F650902F0
:102DA0001368194300231160BDE8F041002180F849
:102DB0003C10184670470000002804BF01207047EF
:102DC00010B5044690F83D0028B9002084F83C0076
:102DD000204600F023F8022084F83D002068211DE1
:102DE00000F0B0FC012084F8480084F83E0084F82C
:102DF0003F0084F8400084F8410084F8420084F8E1
:102E0000430084F8440084F8450084F8460084F8C0
:102E1000470084F83D00002010BD0000704700000E
:102E2000704700007047000070B551B10E1F4FEAA7
:102E3000B60443254FF03F0C042C38BF0CEBB6050D
:102E400000E03E25465D022E04BF022070BD51B158
:102E50000E1F4FEAB60443254FF03F0C042C38BF39
:102E60000CEBB60500E03E25465D012E40F0AF803C
:102E70000446002A4FF0010018BF002B00D170BD9E
:102E800069B1081F4FEAB006032E204618D8DFE8C4
:102E900006F002130B0F022680F83F6013E00226B3
:102EA000204684F83E600EE0022680F841600AE089
:102EB000022680F8426006E0022680F8406002E0C8
:102EC000022680F843604FEAB105032D00F28180AD
:102ED0000E46DFE805F002602241456A43F695049C
:102EE000C0F60004EC62456A43F6FD04C0F6000437
:102EF0002C63456A43F635140168C0F600046C6320
:102F00000446406A01F1340C11466246FDF7BEFCEE
:102F100000285CD14FF4007060E0C56A43F6950468
:102F2000C0F60004EC62C56A43F6FD04C0F6000476
:102F30002C63C56A43F635140168C0F600046C635F
:102F40000446C06A01F13C0C11466246FDF79EFC46
:102F5000E8BB4FF4006041E0056B43F69504C0F612
:102F60000004EC62056B43F6FD04C0F600042C631C
:102F7000056B43F635140168C0F600046C63044623
:102F8000006B01F1400C11466246FDF77FFCF0B981
:102F90004FF4805022E0856A43F69504C0F60004A1
:102FA000EC62856A43F6FD04C0F600042C63856A72
:102FB00043F635140168C0F600046C630446806A69
:102FC00001F1380C11466246FDF760FC20B101208A
:102FD00070BD0120002208E04FF480602168CA68BB
:102FE0001043C860002001223146002A3FF447AF59
:102FF000226801F01F010123166A03FA01F18E43D2
:103000001662166A31431162A2F18041A1F5963130
:103010004FEAB12642F6FF31072EC4F201014ED825
:10302000B34013F0E50F4AD0536C8A4243F4004397
:1030300053640DDC40F2FF71C4F200018A4216DCD9
:10304000B2F1804F2AD040F20041C4F2000123E0E7
:1030500043F6FF71C4F201018A4213DC42F60041DB
:10306000C4F201018A4219D043F2004112E040F655
:103070000001C4F200018A4210D040F60041C4F2BF
:10308000000109E045F20001C4F201018A4205D0C5
:1030900044F20001C4F201018A420BD19168072376
:1030A000C0F20103194006293FF4E9AEB1F5803FB3
:1030B00008BF70BD116841F00101116070BD8A4206
:1030C000B8DD43F6FF73C4F201039A42C6DD44F251
:1030D0000003C4F201039A42E0D045F20003C4F2B7
:1030E00001039A42A0D0E5E770B54FEAB1060D465C
:1030F000032E044610D844F244002168C0F60000B4
:1031000050F82600CA681040C86004EB8600406A88
:10311000FDF79CFA002000E00120032E88BF70BD5F
:10312000216805F01F0301220D6A02FA03F325EA64
:1031300003030B62A1F18043A3F596330D6A4FEAB6
:10314000B323072B0D6212D89A4012F0E50F0ED070
:103150000A6A41F211131A420FD10A6A44F2444337
:103160001A420AD14A6C22F400424A6405E045F250
:103170000002C4F201029142EAD00A6A41F211133C
:103180001A4208D10A6A44F244431A4203D10A6837
:1031900022F001020A60042E18D8DFE806F00313BB
:1031A0000B0F0700012184F83E1070BD012184F847
:1031B000421070BD012184F8401070BD012184F8D7
:1031C000411070BD012184F83F1070BD012184F8C9
:1031D000431070BD10B5006840F60041C4F2000114
:1031E000884221D041F20001C4F2000188420FD090
:1031F00041F20041C4F20001884218BF10BD40F204
:103200001450C2F200000021BDE8104000F0C2BB23
:1032100040F28030C2F20000D0E90012013142F1E8
:103220000002C0E9001210BD40F2D014C2F2000446
:103230002078411C032821704AD8DFE800F00236CC
:10324000142540F21400C2F20000007800283FD09C
:1032500040F2E83040F21501C2F20000C2F2000173
:1032600040F2011231E040F20B00C2F2000000789F
:1032700070B340F24C4040F20C01C2F20000C2F2C6
:10328000000140F2031220E040F20200C2F200000E
:103290000078E8B140F24C4040F20301C2F2000075
:1032A000C2F200014FF482720FE040F20500C2F258
:1032B0000000007860B140F2E83040F20601C2F24E
:1032C0000000C2F200014FF481720123FDF798F96A
:1032D0002078042804BF0020207010BD7047000033
:1032E000FEE7000080B582B041F24800C4F202005F
:1032F0000168002241F004010160016801F004014D
:1033000001910199016841F001010160006800210B
:1033100000F00100009000980B20FEF79BF90B20B5
:1033200002B0BDE88040FEF783B9000010B540F25E
:10333000E83046F20041C2F20000C4F2000100226F
:103340004FF4407380E80E001F214FF0080E4FF03D
:10335000040C05230224C0E9071EC0E90B1E01214D
:10336000C260C0F80F20C0E905C3C0E90943C0E945
:103370000D11C263FDF786FD002808BF10BDBDE832
:103380001040FDF71DB8000010B540F24C4046F665
:103390000001C2F20000C4F2000100224FF44073A9
:1033A00080E80E001F214FF0080E4FF0040C05239B
:1033B0000224C0E9071EC0E90B1E0121C260C0F84B
:1033C0000F20C0E905C3C0E90943C0E90D11C2637C
:1033D000FDF758FD002808BF10BDBDE81040FCF700
:1033E000EFBF000010B540F2B04046F60041C2F217
:1033F0000000C4F2000100224FF4407380E80E0088
:103400001F214FF0080E4FF0040C05230224C0E9E1
:10341000071EC0E90B1E0121C260C0F80F20C0E9E1
:1034200005C3C0E90943C0E90D11C263FDF72AFDD8
:10343000002808BF10BDBDE81040FCF7C1BF000068
:1034400081B041F24C00C4F20200016841F0100169
:103450000160016801F0100100910099016841F0DC
:1034600004010160016801F0040100910099016804
:1034700041F020010160016801F0200100910099F4
:10348000016841F001010160016801F00101009152
:103490000099016841F008010160016801F008012C
:1034A00000910099016841F002010160006800F09C
:1034B00002000090009801B070470000B0B594B0D1
:1034C00040F2004540F21450C4F200050021C2F25F
:1034D0000000C722CDE90C11CDE90A11CDE9081190
:1034E000CDE90611CDE90411CDE90211CDE90011B4
:1034F000C0E90051C0E9021201618161FEF75EFF7F
:10350000002818BFFCF75CFF4FF480500A9040F28F
:103510001450C2F200000AA9FFF75EF8002818BF95
:10352000FCF74EFF40F21450C2F20000FFF744FCDB
:10353000002818BFFCF744FF40F214500024C2F2E8
:10354000000007A907940994FEF7C6FE002818BFDB
:10355000FCF736FF6020CDE900040294049440F2A9
:103560001454C2F20004694620460022FFF72CFAE8
:10357000002818BFFCF724FF21680020A9421390FF
:10358000CDE9110010900F9001D014B0B0BD41F200
:103590004C01C4F202010A6842F010020A60096894
:1035A00001F010010E910E9904210F910221CDE935
:1035B00010100320CDE9120141F20000C4F6000012
:1035C0000FA9FDF7F9FE14B0B0BD000080B588B0BA
:1035D00040F2605040F6004248F29F6C0021C2F277
:1035E0000000C4F200029F23C0F2010C0791CDE954
:1035F0000511CDE90311CDE90111C0E90023C0E9AE
:10360000021C01618161FEF7D9FE002818BFFCF79A
:10361000D7FE4FF48050049040F26050C2F2000098
:1036200004A9FEF7D9FF002818BFFCF7C9FE002047
:103630000190039040F26050C2F2000001A9FEF731
:103640004BFE002818BFFCF7BBFE08B080BD000091
:1036500010B584B040F2AC5041F200010024C2F237
:103660000000C4F2000140F2E7330394CDE90144C5
:103670009F2280E81600C3608461FEF79FFE002849
:1036800018BFFCF79DFE40F2AC50C2F2000001A949
:1036900001940394FEF720FE002818BFFCF790FE6B
:1036A00004B010BD10B584B040F2F85041F20041B2
:1036B0000024C2F20000C4F2000142F20F7303942E
:1036C000CDE901449F2280E81600C3608461FEF7C3
:1036D00075FE002818BFFCF773FE40F2F850C2F2E6
:1036E000000001A901940394FEF7F6FD002818BF1D
:1036F000FCF766FE04B010BDFEE70000FEE7000028
:103700007047000070470000FDF72CBF4EF6885050
:10371000CEF20000016841F47001016070470000C2
:1037200040F26050C2F20000FFF768B840F2AC50BF
:10373000C2F20000FFF762B840F2F850C2F2000097
:10374000FFF75CB840F6FF330268C4F2000343F2AF
:10375000FF3C9842C4F2010C0ADD60452EDC40F6C5
:103760000043C4F20003984234D042F600432DE0F7
:10377000B0F1804F2ED040F20043C4F200039842D3
:1037800028D040F60003C4F20003984222D06045DE
:1037900026DC40F2FF73C4F20003984235DD40F6A8
:1037A0000003C4F20003984245D040F60043C4F23F
:1037B000000398423FD042F6004338E045F2000350
:1037C000C4F20103984205D043F20043C4F201035E
:1037D0009842DCD14B6822F070021A436045D8DD74
:1037E00044F2FF33C4F20103984218DD44F200436F
:1037F000C4F2010398421ED045F20003C4F2010353
:10380000984218D044F6000311E0B0F1804F12D076
:1038100040F20043C4F2000398420CD00FE043F2A0
:103820000043C4F20103984205D044F20003C4F2FD
:103830000103984203D1CB6822F440721A4380B549
:103840004B6922F0800E8A6843EA0E03D1F800C06B
:103850000360C262A0F18042A2F596324FEAB22222
:10386000092AC0F828C0BDE8804008D8012303FA1F
:1038700002F240F2E5231A421CBF096901630121EB
:1038800041610169C90708BF7047016921F0010161
:103890000161704710B5846A616A884211D0A16ADB
:1038A000884216D0E16A88421BD0216B88421FD122
:1038B000C06908210028217704BF012084F8410055
:1038C00016E0C16901200029207708BF84F83E0076
:1038D0000EE0C0690221217750B9012084F83F0031
:1038E00006E0C0690421217710B9012084F8400066
:1038F0002046FFF795FA0020207710BD10B5846AA6
:10390000616A88420AD0A16A884209D0E16A884285
:1039100008D0216B884207D1082004E0012002E092
:10392000022000E0042020772046FFF77BFA0020E9
:10393000207710BD10B5846A616A88420CD0A16AF4
:1039400088420ED0E16A884211D0216B884214D09F
:10395000012084F83D0015E00120207784F83E0026
:1039600010E002202077012084F83F000AE00420C4
:103970002077012084F8400004E00820207701200F
:1039800084F841002046FEF735FF0020207710BD67
:10399000FEE7000070B50C460546FFF7A5FB40F2B8
:1039A000F416C2F2000606F1C000C821FCF79AFC2A
:1039B0002846214632466223BDE87040FFF734BAFC
:1039C000012888BF70472DE9F0419FED441AB5EEFC
:1039D000400AF1EE10FAB8BFB0EE410AB7EE001A95
:1039E000B4EE410AF1EE10FAC8BFB0EE410A01EEA2
:1039F000102AB8EE411A00EB400020EE011AC00078
:103A0000BDEEC11A40F2070C40F2080E40F2F41865
:103A100011EE102A01EE101A02EE103AC2F2000C5A
:103A2000C2F2000E85B2C2F20008B8EE411AB8EE3A
:103A3000422A9CF800109EF8004008EB850520EE15
:103A4000011A20EE020A043D072600BF22FA06F7FB
:103A5000FF070F46A6F1010608BF2746731C45F86D
:103A6000047FF3D100F10805ADB2BDEEC11A9CF898
:103A700000209EF8004008EB850511EE101A043D69
:103A8000072600BF21FA06F3DB071346A6F101065D
:103A900008BF2346771C45F8043FF3D100F110031B
:103AA0009BB2BDEEC00A9CF800509EF8002008EBC7
:103AB000830310EE101A043B072600BF21FA06F715
:103AC000FF072846A6F1010608BF1046771C43F8F9
:103AD000040FF3D1BDE8F041704700BF00000000C3
:103AE00094B0FDF74DFD06AC20463821FCF7FAFBFB
:103AF000002500200595CDE90355CDE90155FDF7D9
:103B0000E5FD012006904FF480300521079002204A
:103B10000F9140210D900326CDE91010CDE9120040
:103B200020460E96FEF774F918B1EFF3108072B6C6
:103B3000FEE70F20CDE9010601A80421CDE90355D8
:103B40000595FDF7DBFF20B1EFF3108072B600BFE3
:103B5000FEE7FFF775FCFFF7C5FBFFF7E7FBFFF795
:103B600013FCFFF73FFCFFF7A9FCFFF79BFDFFF7F6
:103B70006FFDFFF72BFD40F2E830C2F20000FCF7CA
:103B800031FC40F24C40C2F20000FCF789FC40F2EC
:103B9000B040C2F20000FCF7E1FC40F2AC50C2F2CF
:103BA0000000FEF7BDFC40F2F850C2F20000FEF744
:103BB000B7FC40F26050C2F20000FEF7B1FC40F2E8
:103BC000F01640F2C81740F2E114C2F2000640F2CB
:103BD000B815C2F2000740F2803B9FED7A8AC2F22C
:103BE0000004C2F20005C2F2000B4FF0000AB0461A
:103BF000B94600BF40F2F310C2F20000007800287E
:103C0000F8D1207880B1DBE9001240F2E8130138E6
:103C1000C2F20003207040F2F110C3E9001201214A
:103C2000C2F20000317001703078D8B140F2B0407B
:103C300040F20D01C2F20000C2F2000140F2051292
:103C40000123FCF7DDFC012088F800A0FCF790FEC2
:103C500040F2B81540F2E1144F464646C2F2000564
:103C6000C2F2000440F2F110C2F200000078002815
:103C70004AD040F2E812C2F20002DBE90001D2E9C8
:103C80000023821A9941D2F5FA527AEB010115D339
:103C90006FF35F2043F6D671B0F5807F4FF01B00C5
:103CA000C0F6000188BF1E200B18095C5A789B786B
:103CB0000120B0EE480AFFF783FE1BE040F2B0405F
:103CC00040F20E01C2F20000C2F200014FF4837212
:103CD0000123FCF795FC40F2F110C2F2000080F8DD
:103CE00000A040F2F210C2F2000080F800A0012013
:103CF000FCF73EFE40F2E11440F2B815C2F20004B7
:103D0000C2F2000546464F46287880B1DBE9001232
:103D100040F2C0130138C2F20003287040F2C9100B
:103D2000C3E900120121C2F2000039700170387835
:103D3000D8B140F2B04040F20001C2F20000C2F23D
:103D4000000140F207120123FCF75AFC012089F818
:103D500000A0FCF70DFE40F2B81540F2E1144F460A
:103D60004646C2F20005C2F2000440F2C910C2F297
:103D70000000007800284DD040F2C012C2F20002CC
:103D8000DBE90001D2E90023821A994146F2A81327
:103D90009A1A7AEB010117D36FF35F2043F6D671BD
:103DA000B0F5807F4FF00300C0F6000188BF062009
:103DB0000B18095C5A789B780120B0EE480AFFF78F
:103DC000FFFD1DE0CDCCCC3D40F2B04040F2010102
:103DD000C2F20000C2F200014FF484720123FCF72A
:103DE0000FFC40F2C910C2F2000080F800A040F2BF
:103DF000F210C2F2000080F800A00120FCF7B8FD2C
:103E000040F2E11440F2B815C2F20004C2F200051B
:103E100046464F4640F20900C2F2000000780028F2
:103E20005CD140F2D812C2F20002DBE90001D2E913
:103E30000023821A994140F633039A1A7AEB010162
:103E40004CD36FF35F2043F6D671B0F5807F4FF00F
:103E50001800C0F6000188BF12200B18095C5A78C0
:103E60009B780120B0EE480AFFF7AAFD40F2E0146B
:103E7000C2F20004207888B140F2B04040F20A015A
:103E8000C2F20000C2F2000140F209120123FCF765
:103E9000B7FB012084F800A0FCF76AFD40F2D812BD
:103EA000C2F20002DBE90001D2E9002340F2E11492
:103EB000801A40F2D17240F2B8159941801AC2F2CC
:103EC0000004C2F2000546464F4671F1000022BFD1
:103ED00040F2F210C2F2000080F800A040F20900A7
:103EE000C2F20000007801287FF484AE40F2D812BC
:103EF000C2F20002DBE90001D2E90023821A9941F3
:103F000040F633039A1A7AEB0101FFF473AE6FF3B4
:103F10005F2043F6D671B0F5807F4FF01500C0F6F4
:103F2000000188BF2A200B18095C5A789B78012071
:103F3000B0EE480AFFF744FD40F2CA14C2F2000492
:103F4000207888B140F2B04040F20401C2F2000093
:103F5000C2F200014FF485720123FCF751FB0120EE
:103F600084F800A0FCF704FD40F2D812C2F200026F
:103F7000DBE90001D2E9002340F2E114801A40F2AB
:103F8000D1729941801A40F2B81571F10000C2F265
:103F90000004C2F2000546464F46FFF42BAE40F245
:103FA000F210C2F2000080F800A023E6F1EE100A41
:103FB0004FF6FF71C0F2C03120EA010040F04070BE
:103FC000E1EE100A7047000000000000000001024E
:103FD000030406070809FF000000FF000000FFFFC0
:103FE000FFFF000000FFFF0000FFFFFF00FFFFA535
:103FF00000FFC0CBFFD700BFFF0098FF98EE82EE16
:104000004B0082FFDFC4C8FFFF87CEEB808080FFBC
:104010007F500001020304050607080C1014182045
:104020003040000002000000040000000800000012
:1040300010000000FDFFFFFFFBFFFFFFF7FFFFFF8A
:10404000EFFFFFFFFFFDFFFFFFFBFFFFFFF7FFFF9E
:10405000FFEFFFFF78400008000000202000000074
:104060003C0200089840000820000020280C0000B6
:104070005C02000800000000070801040A01027049
:1040800038020901030506000024F40001010000C4
:08409000010000001000000017
:04000005080001D915
:00000001FF
